:020000040800F2
:10000000C812002061010008F1490008953A000873
:1000100000000000000000000000000000000000E0
:10002000000000000000000000000000714C00080B
:100030000000000000000000B54A0008854D0008DF
:100040009507000895070008950700089507000820
:1000500095070008950700081908000823080008FC
:100060009507000825070008350700085107000814
:100070009507000895070008794E0008894E00088A
:10008000954E00089507000895070008094E0008DE
:10009000254E0008414E00085D4E0008993A0008C0
:1000A000B93A0008394C0008554C000821500008A6
:1000B0003D500008595000089507000800F002F86C
:1000C00000F03EF80CA030C8083824182D18A246BD
:1000D000671EAB4654465D46AC4201D100F030F895
:1000E0007E460F3E0FCCB6460126334200D0FB1AA7
:1000F000A246AB4633431847A87B0000C87B0000EC
:10010000103A02D378C878C1FAD8520701D330C860
:1001100030C101D504680C60704700000023002442
:1001200000250026103A01D378C1FBD8520700D32E
:1001300030C100D50B6070471FB51FBD10B510BD95
:1001400000F09CF91146FFF7F7FF06F0C5FD00F03F
:10015000B4F903B4FFF7F2FF03BC00F0BBF90000F1
:10016000044880470448004704480549054A064BAF
:1001700070470000914D0008BD000008C80C002029
:10018000C8120020C80E0020C80E0020FEB505468B
:1001900010460C46184373D0AE468C460020AD1A6C
:1001A00001469C4167D36646002701243D46B61AA6
:1001B0009D4102D313463A462124654676462F04D4
:1001C000360C3E432D0CB61A9D4104D3150C1B046E
:1001D0002B4312041034654676462F06360A3E43FA
:1001E0002D0AB61A9D4104D3150E1B022B43120291
:1001F0000834654676462F0736093E432D09B61A60
:100200009D4104D3150F1B012B431201241D65468C
:100210007646AF07B6083E43AD08B61A9D4104D3F3
:10022000950F9B002B439200A41C65467646EF0772
:1002300076083E436D08B61A9D411AD392185B4169
:10024000641C16E00018764665464941B71A9D4180
:100250000191009009D36046B11A98418E468446B8
:10026000009801990025401C6941DD0752082A4386
:100270005B08641EE6D57246634603B0F0BDFFE737
:1002800000200146C046C0462A462346F5E7002224
:1002900003098B4273D3030A8B4258D3030B8B425F
:1002A0003CD3030C8B4221D312E003460B437FD493
:1002B000002243088B4274D303098B425FD3030AA5
:1002C0008B4244D3030B8B4228D3030C8B420DD3B8
:1002D000FF22090212BA030C8B4202D31212090246
:1002E00065D0030B8B4219D300E0090AC30B8B4284
:1002F00001D3CB03C01A5241830B8B4201D38B0332
:10030000C01A5241430B8B4201D34B03C01A5241D6
:10031000030B8B4201D30B03C01A5241C30A8B4219
:1003200001D3CB02C01A5241830A8B4201D38B0204
:10033000C01A5241430A8B4201D34B02C01A5241A8
:10034000030A8B4201D30B02C01A5241CDD2C3091A
:100350008B4201D3CB01C01A524183098B4201D396
:100360008B01C01A524143098B4201D34B01C01A81
:10037000524103098B4201D30B01C01A5241C308F9
:100380008B4201D3CB00C01A524183088B4201D368
:100390008B00C01A524143088B4201D34B00C01A54
:1003A0005241411A00D201465241104670475DE069
:1003B000CA0F00D04942031000D3404253400022EC
:1003C0009C4603098B422DD3030A8B4212D3FC2295
:1003D000890112BA030A8B420CD3890192118B4214
:1003E00008D3890192118B4204D389013AD092112A
:1003F00000E08909C3098B4201D3CB01C01A5241E5
:1004000083098B4201D38B01C01A524143098B42AD
:1004100001D34B01C01A524103098B4201D30B0196
:10042000C01A5241C3088B4201D3CB00C01A5241BB
:1004300083088B4201D38B00C01A5241D9D24308A2
:100440008B4201D34B00C01A5241411A00D20146DF
:10045000634652415B10104601D34042002B00D549
:100460004942704763465B1000D3404201B500200B
:10047000C046C04602BD704770477047754600F0E1
:1004800025F8AE46050069465346C008C0008546BB
:1004900018B020B5FFF768FE60BC00274908B646D3
:1004A0000026C0C5C0C5C0C5C0C5C0C5C0C5C0C583
:1004B000C0C5403D49008D46704710B50446C04652
:1004C000C0462046FFF745FE10BD000000487047BB
:1004D000640C002001491820ABBEFEE72600020094
:1004E000704770B505466C6A606C50210840002862
:1004F00035D1606C01214902084360642068C068FE
:10050000032189020840002825D1206A002822D131
:10051000206800680821084008281CD120688068ED
:1005200004210840800800280DD1206840680C2173
:10053000884321684860606CFF21013188430121B4
:100540000843606407E0606C202108436064A06C8D
:1005500001210843A064204600F0AEFB03E0E06BFD
:10056000016B2846884770BD70B505466C6A606CA3
:10057000402108436064A06C04210843A064204625
:1005800000F0A1FB70BD70B50446656A284600F016
:1005900099FB70BD38B50446002500200090206806
:1005A00080688007800F01280ED120680068C0078E
:1005B000C00F002806D12068C0680121C903084087
:1005C000884201D1012000E00020002843D12068AA
:1005D000806822490840002801D1012000E0002065
:1005E000002809D1606C102108436064A06C0121CF
:1005F0000843A064012038BD2068806801210843B9
:1006000021688860164917480068FFF740FE00908F
:1006100002E00098401E009000980028F9D101F0F7
:1006200021FC05460EE001F01DFC401B022809D903
:10063000606C102108436064A06C01210843A06431
:100640000120D8E720680068C007C00F012148409A
:1006500048400028E7D00020CDE7000017000080C8
:1006600040420F000C00002010B50246032A01DBB7
:10067000002010BD54205043124B185C142801D1A7
:100680000020F6E7542050430E4BC018001D5423A1
:1006900053430C4CE35C9B00C15054205043234611
:1006A000185C401CC4B2542050431C545420504386
:1006B000C0184078401CC4B254205043C018447045
:1006C0000120D6E758020020002806D0012806D0D5
:1006D000022806D003281AD105E00E4804E00E488F
:1006E00002E00E4800E00E48002810D002780F2AE1
:1006F0000DD09200121851700B0A93700B0CD3702E
:10070000090E11710178491C017001207047002009
:1007100070470000EA0A0020270B0020640B00202D
:10072000A10B002010B50248C06B00F0ADFE10BD5B
:10073000A005002010B5054C2068002805D0E06B0E
:1007400000F0A2FEA06B00F09FFE10BD8807002005
:100750000648C06C002808D010B5054CA06800F011
:1007600093FE606800F090FE10BD7047880700207F
:100770000808002010B5046863604468102C04D198
:100780000468A2600468E16003E00468A160046892
:10079000E26010BD7047000010B50A4800680028EC
:1007A0000FD005F0C5FB03280BD107480068FF28D0
:1007B00007DC054909888905080C4022034905F032
:1007C000D1FB10BD140000201800002014020020EE
:1007D00010B50E480068FF210131884202D1012086
:1007E0000B49086005F0A4FB03280DD107480068F9
:1007F000FF2809DC40220749104605F0A3FB034807
:100800000068401C0149086010BD00001000002075
:1008100014000020D401002010B5042004F030FCA6
:1008200010BD10B5102004F02BFC202004F028FC93
:10083000402004F025FC802004F022FCFF20013041
:1008400004F01EFC0120400204F01AFC012080028A
:1008500004F016FC0120C00204F012FC0120000389
:1008600004F00EFC10BD0000002017490870174965
:10087000087017480088174908800020144908802C
:10088000154800881349098840181349088008460C
:1008900000880A2800DA704700200F4908800120EC
:1008A000094908700D480088401C0C49088008461A
:1008B00000880A2800DAEEE70020084908800120B5
:1008C0000249087000BFE6E7090000200A00002086
:1008D000000000200200002004000020060000208C
:1008E00070B504460025002632492068884200D1B0
:1008F00003E0792130A005F099F800BF4020005DA9
:10090000012801D1022070BD01214020015500BF06
:10091000206880688007800F01280CD1206800685B
:100920000840002805D12068C068C90308408842F3
:1009300001D1012000E0002000282FD1606CFF21B0
:100940000131884302210843606420688068890778
:1009500008432168886001F085FA064611E001F03D
:1009600081FA801B02280CD9606C02218843102177
:100970000843606400BF00214020015500BF0120F2
:10098000C1E720688068C00FC0070028E7D1606C0D
:100990000221884301210843606404E0606C202147
:1009A00008436064012500BF00214020015500BFBD
:1009B0002846A8E7002401402E2E5C53544D3332C4
:1009C000463078785F48414C5F4472697665725C66
:1009D0005372635C73746D3332663078785F68612C
:1009E0006C5F6164635F65782E630000F8B505464F
:1009F0000C460026002000909D492868884200D1BE
:100A000003E09C499CA005F011F82068002835D02F
:100A10002068012832D0206802282FD020680328BF
:100A20002CD02068042829D02068052826D02068EA
:100A3000062823D02068072820D0206808281DD049
:100A4000206809281AD020680A2817D020680B28A7
:100A500014D020680C2811D020680D280ED02068F2
:100A60000E280BD020680F2808D02068102805D049
:100A70002068112802D02068122800D104E07D49A6
:100A8000491C7DA004F0D2FF01210903606888425F
:100A900003D0491C6068884200D104E07549891C74
:100AA00075A004F0C3FF01210907A86B884232D06A
:100AB000A86B01282FD0A86B02282CD0A86B032884
:100AC00029D0A86B042826D0A86B052823D0A86BB2
:100AD000062820D0A86B07281DD0A068884214D013
:100AE000A068012811D0A06802280ED0A0680328B1
:100AF0000BD0A068042808D0A068052805D0A068FD
:100B0000062802D0A068072800D104E05949891DB1
:100B100059A004F08BFF00BF4020405D012801D1A7
:100B20000220F8BD01214020415500BF286880689F
:100B300004210840800800287ED15B496068884213
:100B400064D02868806A227801219140084329688E
:100B5000886201210907A86B884229D0A86B012867
:100B600026D0A86B022823D0A86B032820D0A86B1E
:100B700004281DD0A86B05281AD0A86B062817D00A
:100B8000A86B072814D0A068296849694907490F4C
:100B900088420DD028684069C008C00029684861B3
:100BA00028684069217A4907490F08432968486144
:100BB0002068102805D02068112802D0206812284B
:100BC0004FD13A4880682168102901D1C90407E053
:100BD0002168112902D10121890501E001210906BD
:100BE000084332498860206810283AD1304931489A
:100BF0000068FFF74CFB0A214843009002E0009890
:100C0000401E009000980028F9D12AE02868806AE8
:100C10002278012191408843296888622068102841
:100C200005D02068112802D02068122819D11F4849
:100C300080682168102900E00EE001D1C90407E0B6
:100C40002168112902D10121890501E0012109064C
:100C500088431649886004E0686C20210843686472
:100C6000012600BF00214020415500BF304658E713
:100C700000240140530600002E2E5C53544D3332A5
:100C8000463078785F48414C5F4472697665725CA3
:100C90005372635C73746D3332663078785F686169
:100CA0006C5F6164632E6300011000000027014047
:100CB00040420F000C00002001490120487070479D
:100CC000480000207047704770B504460026002594
:100CD000002C01D1012070BDD1492068884200D18B
:100CE00004E0FF217631CFA004F0A0FE6068002868
:100CF00008D0012189076068884203D049006068F4
:100D0000884200D104E0FF217731C6A004F08EFEB6
:100D1000A068002808D0A068082805D0A06810287E
:100D200002D0A068182800D104E0FF217831BDA0CE
:100D300004F07CFEE068002802D0E068202800D1A2
:100D400004E0FF217931B7A004F070FE206901288A
:100D500002D02069022800D104E0FF217A31B1A03D
:100D600004F064FE206A002802D0206A012800D125
:100D700004E0FF217B31ABA004F058FE606A00283C
:100D800002D0606A012800D104E0FF217C31A5A0D7
:100D900004F04CFEE06A00280DD001218902E06ACF
:100DA000884208D04900E06A884204D003218902C1
:100DB000E06A884200D104E0FF217D3199A004F06F
:100DC00035FEA06A002812D0A06A40280FD0A06A81
:100DD00080280CD0A06AC02809D0FF210131A06A68
:100DE000884204D0FF21C231A06A884200D104E0C9
:100DF000FF217E318BA004F019FE206B002802D069
:100E0000206B012800D104E0FF217F3185A004F090
:100E10000DFE6069042805D06069082802D0606969
:100E20000C2800D104E0FF2180317EA004F0FEFDFB
:100E3000606B012802D0606B002800D104E0FF2124
:100E4000813178A004F0F2FDA069002802D0A069E9
:100E5000012800D104E0FF21823172A004F0E6FDF8
:100E6000E069002802D0E069012800D104E0FF21F8
:100E700083316CA004F0DAFD606C002806D1A06418
:100E8000002140200155204600F0E8F8606C102158
:100E9000084000287ED1002EFCD120688068042103
:100EA000084080080028F5D1606C89018843022140
:100EB00008436064206880688007800F01280DD196
:100EC00020680068C007C00F002805D12068C068EE
:100ED00089030840884201D1012000E00020002859
:100EE0000FD12068C06818218843A1680843216891
:100EF000C860206800698000800861680843216834
:100F000008612068C068534908402168C860A0692A
:100F10008003E169C9030843216A49030843616BFF
:100F2000012902D00121090300E000210843E16802
:100F300008432169022901D1042100E0002108436E
:100F4000216B490008430543606A01280ED1206ADD
:100F5000002803D101200004054307E0606C202134
:100F600008436064A06C01210843A064FF21C231E2
:100F7000A06A884203D0E16AA06A0843054320685A
:100F8000C06828432168C86001210907A06B884216
:100F900016D000E03DE0A06B012811D0A06B022824
:100FA0000ED0A06B03280BD0A06B042808D0A06B38
:100FB000052805D0A06B062802D0A06B07280DD10C
:100FC00020684069C008C000216848612068406905
:100FD000218F4907490F0843216848612068C0688C
:100FE0001D490840A84208D10020A064606C02217D
:100FF000884301210843606410E0606C022188434B
:10100000102108436064A06C01210843A0640126FC
:1010100004E0606C102108436064012630465AE603
:10102000002401402E2E5C53544D333246307878E4
:101030005F48414C5F4472697665725C5372635CD1
:1010400073746D3332663078785F68616C5F6164A9
:10105000632E63001902FEFFE7FF3F837047000025
:10106000F8B504460D46164600272E4920688842EA
:1010700000D103E02C492DA004F0D8FC2068806842
:10108000042108408008002848D100BF4020005DAE
:10109000012801D10220F8BD01214020015500BFE7
:1010A000E069012803D02046FFF774FA0746002FB5
:1010B00035D1606C29490840FF2101310843606443
:1010C0000020A06400BF00214020015500BF24483B
:1010D000E16B88622348E16BC8622348E16B0863D7
:1010E0001C2021680860206840681021084321689E
:1010F00048602068C068012108432168C8602268F0
:101100001146403133462A46E06B00F027FC206848
:101110008068042108432168886000E0022738467F
:10112000B9E7000000240140BE0400002E2E5C53ED
:10113000544D3332463078785F48414C5F44726991
:101140007665725C5372635C73746D3332663078AB
:10115000785F68616C5F6164632E6300FEF1FFFF7E
:10116000E30400088705000869050008034601201C
:101170007047000010B50446002C01D1012010BDBD
:101180000C492068884200D104E0FF2111310AA0F7
:1011900004F04CFC2079002803D16071204600F057
:1011A00023F80220207100202061012020710020FE
:1011B000E5E70000007400402E2E5C53544D33329E
:1011C000463078785F48414C5F4472697665725C5E
:1011D0005372635C73746D3332663078785F686124
:1011E0006C5F6461632E63007047000070B5044655
:1011F00000252120005D022803D00420A0630125E2
:1012000049E0206800680E21884321680860206852
:101210000068400840002168086020492068884232
:1012200001D1012026E01D4914312068884201D1F6
:1012300010201FE0194928312068884201D180150B
:1012400018E016493C312068884201D1801411E031
:10125000124950312068884202D10120000409E07F
:101260000E4964312068884202D10120000501E066
:101270000120000609490839486001212120015553
:1012800000BF00212020015500BF606B002802D064
:101290002046616B8847284670BD00000800024068
:1012A00010B50446002C01D1012010BD6949206809
:1012B00088421DD0674914312068884218D065499A
:1012C00028312068884213D062493C312068884226
:1012D0000ED0604950312068884209D05D496431A0
:1012E0002068884204D05B4978312068884200D168
:1012F00003E0F82158A004F099FB2068006840083A
:10130000400021680860002021680860216848606A
:10131000216888602168C8604E492068884201D1F0
:10132000022027E04B4914312068884201D1202057
:1013300020E0484928312068884201D1401519E051
:1013400044493C312068884202D10120400311E029
:10135000404950312068884202D10120400409E010
:101360003C4964312068884202D10120400501E0F7
:1013700001204006374908394860364920688842CC
:1013800001D1082027E0334914312068884201D177
:10139000802020E02F4928312068884201D1C014E4
:1013A00019E02C493C312068884202D10120C00359
:1013B00011E0284950312068884202D10120C00440
:1013C00009E0244964312068884202D10120C00527
:1013D00001E00120C0061F49083948601D49206806
:1013E000884201D1042027E01A491431206888423C
:1013F00001D1402020E0174928312068884201D1DE
:10140000001519E013493C312068884202D10120BF
:10141000800311E00F4950312068884202D1012039
:10142000800409E00B4964312068884202D1012020
:10143000800501E001208006064908394860002047
:10144000A06300212120015500BF2020015500BFCD
:1014500000202AE7080002402E2E5C53544D333200
:10146000463078785F48414C5F4472697665725CBB
:101470005372635C73746D3332663078785F686181
:101480006C5F646D612E630010B50446C648006849
:10149000C54A08322168914201D1082127E0C24A99
:1014A0001C322168914201D1802120E0BE4A3032B5
:1014B0002168914201D1C91419E0BB4A4432216824
:1014C000914202D10121C90311E0B74A5832216883
:1014D000914202D10121C90409E0B34A6C3221686A
:1014E000914202D10121C90501E00121C90608404C
:1014F00000284ED02068006808210840C008002855
:1015000047D020680068884321680860A6490831F0
:101510002068884201D1082027E0A3491C312068B7
:10152000884201D1802020E09F49303120688842E4
:1015300001D1C01419E09C4944312068884202D18D
:101540000120C00311E0984958312068884202D137
:101550000120C00409E094496C312068884202D11E
:101560000120C00501E00120C0068F494860A06B42
:1015700001210843A06304212120015500BF00215F
:101580002020015500BF206B002802D02046216B8F
:10159000884785480068844A08322168914201D111
:1015A000042127E0804A1C322168914201D1402168
:1015B00020E07D4A30322168914201D1091519E0BD
:1015C000794A44322168914202D10121890311E014
:1015D000754A58322168914202D10121890409E0FB
:1015E000714A6C322168914202D10121890501E0E2
:1015F00001218906084000284CD020680068042199
:1016000008408008002845D0206800682021084054
:10161000002805D1206800680421884321680860FB
:10162000614908312068884201D1042027E05E49E1
:101630001C312068884201D1402020E05A493031D5
:101640002068884201D1001519E0574944312068CB
:10165000884202D10120800311E0534958312068AB
:10166000884202D10120800409E04F496C31206892
:10167000884202D10120800501E0012080064A490C
:101680004860112121200155E06A002802D020463F
:10169000E16A884744480068434A08322168914219
:1016A00001D1022127E0404A1C322168914201D138
:1016B000202120E03C4A30322168914201D1491575
:1016C00019E0394A44322168914202D1012149038B
:1016D00011E0354A58322168914202D10121490472
:1016E00009E0314A6C322168914202D10121490559
:1016F00001E0012149060840002853D02068006815
:1017000002210840400800284CD0206800682021B1
:101710000840002805D1206800680221884321681C
:101720000860214908312068884201D1022027E061
:101730001D491C312068884201D1202020E01A492F
:1017400030312068884201D1401519E016494431F2
:101750002068884202D10120400311E0124958312B
:101760002068884202D10120400409E00E496C3112
:101770002068884202D10120400501E00120400696
:1017800009494860A06BA06301212120015500BFD9
:1017900000212020015500BFA06A002802D0204669
:1017A000A16A884710BD00000000024070B50446E1
:1017B0000025002C01D1012070BD5A4920688842C3
:1017C0001DD0584914312068884218D05549283115
:1017D0002068884213D053493C31206888420ED09B
:1017E000504950312068884209D04E496431206800
:1017F000884204D04B4978312068884200D103E008
:10180000BD2149A004F012F96068002807D0606883
:10181000102804D0012189036068884200D103E0C8
:10182000BE2141A004F002F9A068402802D0A068BF
:10183000002800D103E0BF213BA004F0F7F8E068E6
:10184000802802D0E068002800D103E0C02136A043
:1018500004F0ECF82069002808D0FF21013120694C
:10186000884203D049002069884200D103E0C121A9
:101870002DA004F0DBF86069002808D0012189025E
:101880006069884203D049006069884200D103E062
:10189000C22125A004F0CAF8A069002802D0A069DE
:1018A000202800D103E0C3211FA004F0BFF8E069A5
:1018B00000280DD001210903E069884208D04900C1
:1018C000E069884204D003210903E069884200D11D
:1018D00003E0C42114A004F0A9F82120005D002831
:1018E00002D100212020015502212120015520682C
:1018F000056819480540A16860680843E168084325
:101900002169084361690843A1690843E169084303
:101910000543206805600020A063012121200155B6
:10192000002049E7080002402E2E5C53544D33320C
:10193000463078785F48414C5F4472697665725CE6
:101940005372635C73746D3332663078785F6861AC
:101950006C5F646D612E63000FC0FFFFF8B5044635
:101960000E4617461D4600BF2020005D012801D10C
:101970000220F8BD01212020015500BF02212120B5
:101980000155002D03D0C803854200D204E0FF2199
:10199000643114A004F04AF8206800684008400050
:1019A000216808602B463A4631462046FEF7E2FEA3
:1019B00020680068022108432168086020680068E8
:1019C0000421084321680860206800680821084352
:1019D00021680860206800680121084321680860C8
:1019E0000020C6E72E2E5C53544D333246307878B3
:1019F0005F48414C5F4472697665725C5372635C08
:101A000073746D3332663078785F68616C5F646DD3
:101A1000612E6300FEB506460C46002700200190AB
:101A200000250920C00686420ED0BB4886420BD056
:101A3000BA48864208D0BA48864205D0B94886429C
:101A400002D0B948864200D103E0C321B7A003F019
:101A5000EDFF208880B2002805D02068000C00042B
:101A6000002800D103E0C421B0A003F0DFFF6068CC
:101A7000002826D06068012823D06068112820D073
:101A8000606802281DD0606812281AD0B4496068C6
:101A9000884216D0B3496068884212D0B249606863
:101AA00088420ED0B149606888420AD0B049606867
:101AB000884206D0AF496068884202D06068032837
:101AC00000D103E0C52199A003F0B0FFA068002871
:101AD00005D0A068012802D0A068022800D103E048
:101AE000C62192A003F0A2FF0FE10121B9402068B6
:101AF00008400190019800287ED06068022802D03A
:101B00006068122832D10920C00686420BD0824874
:101B1000864208D08148864205D08148864202D05C
:101B20008048864200D103E0D52180A003F07EFFEB
:101B30002069072800D803E0D6217CA003F076FFB7
:101B4000F80881003046203045587807C10E0F2034
:101B50008840294681430D467907C90E206988408F
:101B60000543F8088100304620304550356879003B
:101B700003208840294681430D4620798007800F45
:101B800079008840054335606068012808D06068A6
:101B9000022805D06068112802D06068122826D17A
:101BA000E068002805D0E068012802D0E06803283A
:101BB00000D103E0EA215DA003F038FFB5687900A9
:101BC00003208840294681430D467900E06888401B
:101BD0000543B56075680120B840294681430D462C
:101BE0001021606808400009B84005437560F56839
:101BF00079000320884000E086E0294681430D46B5
:101C00007900A06888400543F560012109076068F4
:101C10000840884278D100BF5748806901210843B5
:101C20005549886108468069C007C00F009000BF11
:101C300000BF5248B90889004558B807010F0F2066
:101C40008840294681430D460920C006864201D1BD
:101C5000002014E03048864201D101200FE02F48D7
:101C6000864201D102200AE02D48864201D103209C
:101C700005E02C48864201D1042000E00520B90788
:101C8000090F884005433D48B908890045503C4844
:101C900005682946019881430D46012109046068C1
:101CA0000840884201D101980543354805604568E0
:101CB0002946019881430D46012149046068084086
:101CC000884201D1019805432D4845608568294621
:101CD000019881430D46012109056068084088424A
:101CE00001D10198054326488560C56829460198B9
:101CF00081430D460121490560680840884201D1B1
:101D0000019805431E48C5607F1C2068F8400028E4
:101D100000D0EAE6FEBD00000004004800080048CC
:101D2000000C004800100048001400482E2E5C53A0
:101D3000544D3332463078785F48414C5F44726985
:101D40007665725C5372635C73746D33326630789F
:101D5000785F68616C5F6770696F2E6300000000D8
:101D600000001110000021100000311000001210BE
:101D70000000221000003210001002400800014054
:101D80000004014070B506460C46A0B2002804D0FD
:101D9000200C0004002800D104E0FF21903106A0AF
:101DA00003F044FE30692040002801D0012500E006
:101DB0000025284670BD00002E2E5C53544D333252
:101DC000463078785F48414C5F4472697665725C52
:101DD0005372635C73746D3332663078785F686118
:101DE0006C5F6770696F2E630000000070B5064677
:101DF0000C461546A0B2002804D0200C0004002890
:101E000000D104E0FF21AF3109A003F00FFE002D47
:101E100001D0012D00D104E0FF21B03104A003F076
:101E200005FE002D01D0B46100E0B46270BD000079
:101E30002E2E5C53544D3332463078785F48414CF7
:101E40005F4472697665725C5372635C73746D3360
:101E500032663078785F68616C5F6770696F2E6397
:101E60000000000001480068704700008C0000205E
:101E70007047704770B50446206885692068066819
:101E8000FF200130284000280AD080203040002860
:101E900006D0606C01210843606408022168C861B3
:101EA00001208002284000280AD0802030400028ED
:101EB00006D0606C082108436064C8012168C861CD
:101EC00001204002284000280AD08020304000280D
:101ED00006D0606C02210843606408022168C86172
:101EE000606C0B210840002803D0616C204601F093
:101EF00083FF70BD70B50446206885692068066858
:101F0000606B002804D0324629462046636B984710
:101F100070BD0000F8B50D4E05463078002400284D
:101F200013D90B4F18206043C01941682A6809680B
:101F3000914206D1042101724169002901D0686CE7
:101F400088473078641C8442ECD3F8BD6A000020D6
:101F50002008002010B50446002C01D1012010BD3E
:101F600069492068884203D068492068884200D1C6
:101F700004E0FF219C3166A003F058FD7049A06881
:101F8000884200D804E0FF219D3161A003F04EFD9E
:101F9000E068012802D0E068022800D104E0FF21B7
:101FA0009E315BA003F042FD2069002804D001218E
:101FB000C9032069884200D104E0FF219F3154A069
:101FC00003F034FD6069FF2800D804E0FF21A03150
:101FD0004FA003F02BFDA069002814D0A0690128B0
:101FE00011D0A06902280ED0A06903280BD0A069E7
:101FF000042808D0A069052805D0A069062802D0C9
:10200000A069072800D104E0FF21A13140A003F01E
:102010000DFDE069002804D00121C904E06988426F
:1020200000D104E0FF21A23139A003F0FFFC206AB7
:10203000002804D001214904206A884200D104E02C
:10204000FF21A33132A003F0F1FC4120005D002804
:1020500005D1002140200155204600F00BFB242132
:102060004120015520680068400840002168086050
:102070000F2109066068884321680861206880682C
:102080000121C903884321688860A06800280FD017
:10209000E068012806D10121C903A068084321682E
:1020A000886005E021218902A068084321688860D2
:1020B000E068022802D180022168486020684068F8
:1020C0002049084321684860616920690843A16983
:1020D000090208432168C860216AE0690843216851
:1020E000086020680068012108432168086000201A
:1020F00060642021412001550020206300214220FE
:10210000015500202BE7000000540040005800401B
:102110002E2E5C53544D3332463078785F48414C14
:102120005F4472697665725C5372635C73746D337D
:1021300032663078785F68616C5F6932632E630065
:10214000FF03000000800002FFB583B004460F4685
:102150001D460026002002904120005D20286FD1FE
:10216000206880690121C9030840C00B002802D003
:10217000022007B0F0BD00BF4020005D012801D162
:102180000220F6E701214020015500BF2421412013
:1021900001550020606400BFE068012809D1B8053E
:1021A000800D01214903401809034018C9138843D1
:1021B00008E0B805800D0121C902401889004018C7
:1021C000C910884321684860FFF74CFE064613E0BB
:1021D000681C002810D0002D04D0FFF743FE801BA0
:1021E000A84209D920214120015500BF00214020EB
:1021F000015500BF0320BCE720688069202108400A
:10220000400900280AD1206880691021084000098F
:10221000002803D14120005DA028D9D12068806921
:10222000102108400009002818D12B460022202147
:102230002046009602F0E2FA002802D0032098E738
:1022400047E020202168C86120214120015500BFBE
:1022500000214020015500BF00208AE72B460022C4
:1022600020212046009602F0C9FA002801D0032060
:102270007FE710202168C86120202168C86102988A
:10228000411C02910599884214D1206840680121BF
:1022900089030843216848602B46002220212046FC
:1022A000009602F0ABFA002801D0032061E720205D
:1022B0002168C86102990598814200D26CE720210B
:1022C0004120015500BF00214020015500BF0320DF
:1022D0004FE702204DE7704770477047F8B50D4E45
:1022E000054630780024002812D90B4F182060438F
:1022F000C01941682A680968914205D10321017219
:102300000069002800D080473078641C8442EDD3F7
:10231000F8BD00006A00002020080020F8B50D4E2E
:10232000054630780024002812D90B4F182060434E
:10233000C01941682A680968914205D103210172D8
:10234000C068002800D080473078641C8442EDD3F8
:10235000F8BD00006A00002020080020FFB585B00D
:1023600004461D460F9F0E9E002004900390012DF1
:1023700001D0022D00D103E04A494BA003F056FBE7
:102380004120005D20287DD1002E01D0002F02D1F8
:10239000012009B0F0BD206880690121C90308400F
:1023A000C00B002801D00220F3E700BF4020005DF1
:1023B000012801D10220ECE701214020015500BF96
:1023C000FFF750FD04902221412001554021422079
:1023D000015500206064666267853F48E0623F48BF
:1023E0006063608DFF2804D9FF2020858804039056
:1023F00004E0608D20850120400603901921049897
:102400002B46009101902046079A069901F0FBFFA8
:10241000002810D0606C042806D100BF00214020A5
:10242000015500BF0120B4E700BF00214020015545
:1024300000BF0320ADE72A48E16B88622948E16BC1
:1024400008630020E16BC862E16B4863238D22685A
:10245000114624313246E06BFFF780FA09208002F2
:102460000090208DC2B22046039B069902F05CF9D1
:10247000608D218D401A608500BF002140200155EC
:1024800000BF00E00CE0206800680121C903084398
:10249000216808601121204601F0E2FB002078E766
:1024A000022076E7250900002E2E5C53544D33326E
:1024B000463078785F48414C5F4472697665725C5B
:1024C0005372635C73746D3332663078785F686121
:1024D0006C5F6932632E63000000FFFFFD4200085D
:1024E000373B0008193B0008FFB585B004461D4680
:1024F0000F9F0E9E002004900390012D01D0022D0D
:1025000000D103E04A494BA003F090FA4120005D5E
:1025100020287DD1002E01D0002F02D1012009B04A
:10252000F0BD206880690121C9030840C00B002864
:1025300001D00220F3E700BF4020005D012801D157
:102540000220ECE701214020015500BFFFF78AFC83
:1025500004902121412001554021422001550020B5
:102560006064666267853F48E0623F486063608DF3
:10257000FF2804D9FF2020858804039004E0608DA3
:102580002085012040060390192104982B460091D4
:1025900001902046079A069901F07EFF002810D08E
:1025A000606C042806D100BF00214020015500BF07
:1025B0000120B4E700BF00214020015500BF0320E7
:1025C000ADE72A48A16B88622948A16B0863002007
:1025D000A16BC862A16B4863238D21680A4628322B
:1025E0003146A06BFFF7BAF900200090208DC2B2EF
:1025F0002046039B069902F097F8608D218D401AC2
:10260000608500BF00214020015500BF112100E07E
:102610000BE0204601F024FB2068006801218903BB
:10262000084321680860002079E7022077E700006E
:10263000B10800002E2E5C53544D3332463078786A
:102640005F48414C5F4472697665725C5372635CAB
:1026500073746D3332663078785F68616C5F6932AD
:10266000632E63000000FFFFFD4200088D3B000861
:10267000193B0008704770477047000070B504466A
:102680000025002C01D1012070BD484920688842F6
:1026900000D103E0B12146A003F0C8F9606800282A
:1026A00011D0606801280ED0606802280BD06068E5
:1026B000032808D06068042805D06068052802D087
:1026C0006068062800D103E0B22139A003F0AEF91A
:1026D0004449A068884200D803E0B32134A003F045
:1026E000A5F94049E068884200D803E0B42130A051
:1026F00003F09CF92068C068C007C00F0121484062
:10270000484000280FD02068C068022108404008D7
:10271000002808D02068C0680421084080080028EC
:1027200001D00120B0E7607C002803D1207420464E
:1027300000F05CF8022060742B4821680860206873
:102740004068C008C000616808432168486020688C
:102750008068000B0003A168084321688860214954
:10276000E068884203D120680069884219D0FFF7E9
:1027700079FB054609E0FFF775FB401B7D21C90089
:10278000884202D9032060747EE72068C068002870
:10279000F1D120680069000B0003E168084321685B
:1027A00008610120607400206EE7000000300040E6
:1027B0002E2E5C53544D3332463078785F48414C6E
:1027C0005F4472697665725C5372635C73746D33D7
:1027D00032663078785F68616C5F697764672E6312
:1027E00000000000FF0F000055550000704700007A
:1027F00070B50446002500BF207C012801D10220CD
:1028000070BD0120207400BF02206074FFF72AFB16
:1028100005460EE0FFF726FB401B7D21C9008842DC
:1028200007D90320607400BF0020207400BF03207C
:10283000E6E72068C0680221084040080028E9D186
:102840000548216808600120607400BF00202074E2
:1028500000BF00BFD4E70000AAAA000070B504467C
:10286000002500BF207C012801D1022070BD01207D
:10287000207400BF022060741D49E068884202D1C4
:102880001C48216808601C4821680860FFF7EAFAC4
:1028900005460EE0FFF7E6FA401B7D21C90088429D
:1028A00007D90320607400BF0020207400BF0320FC
:1028B000DCE72068C068C007C00F012148404840DD
:1028C00000280DD02068C068022108404008002878
:1028D00006D02068C0680421084080080028D9D1AB
:1028E0000120607400BF0020207400BF00BFBDE75E
:1028F000FF0F0000AAAA0000CCCC0000024800682C
:10290000401C0149086070478C00002010B5064843
:1029100000681021084304490860002000F006F810
:1029200000F017F8002010BD0020024070B50446EA
:1029300000F04AFB06467D21C900FDF7A8FC0546CC
:1029400001F06EF800222146501E00F05FF80020D2
:1029500070BD704710B50446002C00DB03E0BD21BC
:1029600005A003F063F800BFE106C90E012088400E
:102970000E49086000BF10BD2E2E5C53544D3332FB
:10298000463078785F48414C5F4472697665725C86
:102990005372635C73746D3332663078785F68614C
:1029A0006C5F636F727465782E63000080E100E0F5
:1029B00010B50446002C00DB03E0AD2105A003F0B8
:1029C00035F800BFE106C90E012088400E490860B5
:1029D00000BF10BD2E2E5C53544D333246307878F4
:1029E0005F48414C5F4472697665725C5372635C08
:1029F00073746D3332663078785F68616C5F636FD3
:102A0000727465782E63000000E100E070B5054641
:102A10000C461646042C00D203E09D2103A003F0CF
:102A200005F82146284601F0E5FF70BD2E2E5C53C7
:102A3000544D3332463078785F48414C5F44726978
:102A40007665725C5372635C73746D333266307892
:102A5000785F68616C5F636F727465782E630000E5
:102A6000F8B50446002600258A492068884200D827
:102A700003E0802188A002F0D9FF01210904206829
:102A80000840884270D1606800280CD00912606844
:102A9000884208D049006068884204D003210902B6
:102AA0006068884200D103E086217BA002F0BEFF6F
:102AB00000278648C06901210907084000280DD178
:102AC00000BF8248C06908438049C8610846C069A0
:102AD00009040840009000BF00BF01277C4800683F
:102AE000FF2101310840002816D1794800680843C9
:102AF00077490860FFF7B6F9064606E0FFF7B2F936
:102B0000801B642801D90320F8BD71480068FF21AB
:102B1000013108400028F1D06C48006A0321090205
:102B200008400546002D2ED060680840A8422AD0F3
:102B30006648006A884305466448006A0121090422
:102B40000843624908620846006A01210904884373
:102B50005E49086208460562E807C00F002812D0E7
:102B6000FFF780F9064608E01FE0FFF77BF9801BBE
:102B70005849884201D90320C6E75448006A022117
:102B800008400028F1D05148006A03210902884317
:102B9000616808434D490862012F05D10846C069A4
:102BA000090488434949C86100BF2078C007C00FA5
:102BB000002818D0A068002808D0A068012805D0F7
:102BC000A068022802D0A068032800D103E0CD212C
:102BD00031A002F02BFF3D48006B80088000A16807
:102BE00008433A49086302212068084002281DD1A1
:102BF000E06800280CD0C903E068884208D049008A
:102C0000E068884204D003210904E068884200D1CA
:102C100003E0D92120A002F009FF2C48006B03211A
:102C200009048843E1680843284908632021206893
:102C30000840202812D12069002802D020691028DD
:102C400000D103E0F12114A002F0F0FE1F48006B58
:102C500010218843216908431C4908630121890226
:102C600020680840884213D16069002802D060695A
:102C7000402800D104E0FF210C3107A002F0D6FE6D
:102C80001248006B40218843616908430F4908637B
:102C9000002039E7230401002E2E5C53544D3332BB
:102CA000463078785F48414C5F4472697665725C63
:102CB0005372635C73746D3332663078785F686129
:102CC0006C5F7263635F65782E63000000100240E2
:102CD000007000408813000070B504460D460026C1
:102CE000002C00D004E0B7218900A5A002F09EFED0
:102CF0002078C007C00F002809D1022120680840B1
:102D0000022804D0042120680840042800D103E0F0
:102D1000A7499BA002F08AFE002D01D0012D00D111
:102D200004E0A349491C96A002F080FEA148006877
:102D3000C007C00FA8420ED29E480068400840005D
:102D400028439C49086008460068C007C00FA84295
:102D500001D0012070BD022120680840022828D13E
:102D6000A068002817D0A068802814D0A0689028F8
:102D700011D0A068A0280ED0A068B0280BD0A06801
:102D8000C02808D0A068D02805D0A068E02802D0CC
:102D9000A068F02800D104E08549183178A002F03D
:102DA00045FE85484068F0218843A1680843824970
:102DB00048602078C007C00F00285AD060680028FB
:102DC00008D06068012805D06068022802D06068D9
:102DD000032800D104E0BF21890069A002F026FE8B
:102DE0006068012808D1744800680121490408403E
:102DF000002821D10120ADE76068022808D16E4883
:102E00000068012149060840002815D10120A1E7EA
:102E10006068032808D16848406B01210904084014
:102E2000002809D1012095E7634800680221084085
:102E3000002801D101208DE75F48406880088000AC
:102E4000616808435C494860FFF70CF80646606813
:102E500001280FD107E0FFF705F8801B574988428A
:102E600001D9032076E7544840680C210840042823
:102E7000F1D134E0606802280FD107E0FEF7F2FFDD
:102E8000801B4E49884201D9032063E74A484068C5
:102E90000C2108400828F1D121E0606803280FD1F7
:102EA00007E0FEF7DFFF801B4449884201D9032079
:102EB00050E7414840680C2108400C28F1D10EE051
:102EC00007E0FEF7CFFF801B3C49884201D9032071
:102ED00040E7394840680C2108400028F1D13548C6
:102EE0000068C007C00FA8420ED9324800684008E9
:102EF000400028432F49086008460068C007C00FFB
:102F0000A84201D0012025E70421206808400428B8
:102F100024D1E068002812D00902E06888420ED06F
:102F200005210902E068884209D003214902E068CE
:102F3000884204D007210902E068884200D104E0F9
:102F40001B4988310EA002F071FD1B484068072123
:102F500009028843E16808431749486000F04CF8CB
:102F600015494968F02211400909154A515CC840C9
:102F7000144908600020FFF7D9FC0020EAE60000B1
:102F80002E2E5C53544D3332463078785F48414C96
:102F90005F4472697665725C5372635C73746D33FF
:102FA00032663078785F68616C5F7263632E6300AD
:102FB000DD020000002002400010024088130000E3
:102FC0003C7800080C0000200148006870470000B1
:102FD0000C00002000B5FFF7F7FF054949680722FC
:102FE00012021140090A034A515CC84000BD0000AA
:102FF000001002404C780008F0B589B02FA00146BF
:103000000EC9C06805AC0EC4089030A001460EC9B8
:10301000C06801AC0EC404900024002600270025DF
:10302000002000902D4844680C20204000283DD00E
:10303000042804D0082805D00C2836D132E02848CE
:10304000009036E00F2080042040800C05A90D5C24
:103050002248C06A0007000F01A90E5C0320C003CC
:10306000204001210904884206D131461C48FDF761
:103070000EF96843074613E00320C00320400321F4
:10308000C903884206D131461648FDF700F9684366
:10309000074605E031461448FDF7F9F8684307464E
:1030A000009706E00F48009003E000BF0E48009034
:1030B00000BF00BF009809B0F0BD00000203040586
:1030C000060708090A0B0C0D0E0F1010010203046D
:1030D00005060708090A0B0C0D0E0F100010024020
:1030E00000093D00006CDC0200127A00F8B50446CD
:1030F0000025002C00D004E0FF211531FCA002F0D7
:1031000095FC206800281DD02078C007C00F00283B
:1031100018D1022120680840022813D00821206815
:10312000084008280ED0042120680840042809D04F
:10313000102120680840102804D020212068084071
:10314000202800D104E0FF211631E9A002F06EFC36
:103150002078C007C00F002873D06068002805D011
:103160006068012802D06068052800D104E0FF21D2
:103170001C31DFA002F05AFCE94840680C210840ED
:1031800004280CD0E64840680840082813D1E448D9
:103190004068490308400121090488420BD1E048F6
:1031A000006801214904084000286CD060680028AC
:1031B00069D10120F8BD00BF6068012807D1D84857
:1031C0000068012109040843D549086031E06068BE
:1031D00000280ED1D2480068012109048843D04953
:1031E000086008460068012189048843CC490860CA
:1031F0001FE0606805280ED1C948006801218904D4
:103200000843C749086008460068012109040843CB
:10321000C34908600DE0C2480068012109048843E1
:10322000BF49086008460068012189048843BC49F9
:10323000086000BF6068002813D0FEF713FE054643
:1032400007E020E0FEF70EFE401B642801D90320B2
:10325000B0E7B34800680121490408400028F1D0D4
:1032600011E0FEF7FFFD054606E0FEF7FBFD401B03
:10327000642801D903209DE7A94800680121490479
:1032800008400028F1D1022120680840022877D1A7
:10329000E068002802D0E068012800D104E0FF21A6
:1032A000503193A002F0C2FB20691F2800D804E02F
:1032B000FF2151318EA002F0B9FB994840680C21E2
:1032C000084000280CD096484068084008281CD1C7
:1032D00093484068490308400121C903884214D13A
:1032E0008F48006802210840002804D0E0680128C7
:1032F00001D001205EE78A480068F82188432169EF
:10330000C9000843864908603AE0E068002820D0F8
:10331000834800680121084381490860FEF7A2FD47
:10332000054606E0FEF79EFD401B022801D903205A
:1033300040E77B480068022108400028F2D0784826
:103340000068F82188432169C9000843744908606E
:1033500016E0734800684008400071490860FEF7B5
:1033600081FD054606E0FEF77DFD401B022801D9E0
:1033700003201FE76A480068022108400028F2D1B4
:1033800008212068084008283DD1E069002802D0C3
:10339000E069012800D104E0FF21913154A002F03E
:1033A00045FBE069002817D05D48406A01210843C9
:1033B0005B494862FEF756FD054606E0FEF752FD02
:1033C000401B022801D90320F4E65548406A022137
:1033D00008400028F2D016E05148406A40084000FA
:1033E0004F494862FEF73EFD054606E0FEF73AFD0E
:1033F000401B022801D90320DCE64948406A02212B
:1034000008400028F2D104212068084004286DD12A
:103410000026A068002805D0A068012802D0A06876
:10342000052800D104E0FF21BD3131A002F0FEFAF1
:103430003B48C06901210907084000280DD100BFA1
:103440003748C06908433649C8610846C06909045D
:103450000840009000BF00BF012632480068FF21ED
:1034600001310840002816D12E48006808432D4934
:103470000860FEF7F7FC054606E0FEF7F3FC401B8C
:10348000642801D9032095E626480068FF21013110
:1034900008400028F1D000BFA068012806D12048CC
:1034A000006A012108431E49086249E0A06800281B
:1034B0000CD11B48006A40084000194908620846C0
:1034C000006A042188431649086239E0A06805288B
:1034D0002AD11348006A04210843114908620846AA
:1034E000006A012108430E49086229E05AE0000001
:1034F0002E2E5C53544D3332463078785F48414C21
:103500005F4472697665725C5372635C73746D3389
:1035100032663078785F68616C5F7263632E630037
:103520000010024000700040FE48006A4008400061
:10353000FC4908620846006A04218843F949086288
:1035400000BFA068002812D0FEF78CFC054607E0FB
:10355000FEF788FC401BF449884201D9032029E684
:10356000F048006A022108400028F1D011E0FEF77F
:1035700079FC054607E0FEF775FC401BEA498842E6
:1035800001D9032016E6E748006A02210840002816
:10359000F1D1012E05D1E348C06931078843E149E3
:1035A000C86100BF102120680840102871D16069EF
:1035B000002806D06069012803D06069401D0028FA
:1035C00000D103E0D949DA4802F030FAA0691F2897
:1035D00000D804E0D549491CD54802F027FA6069B3
:1035E000012826D1CF48406B04210843CD494863C8
:1035F0000846406B01210843CA494863FEF732FC84
:10360000054606E0FEF72EFC401B022801D90320E8
:10361000D0E5C448406B022108400028F2D0C148E0
:10362000406BF8218843A169C9000843BD4948633C
:103630002FE06069401D00280FD1BA48406B04217B
:103640008843B84948630846406BF8218843A1691C
:10365000C9000843B34948631BE0B248406B0421EA
:103660000843B04948630846406B4008400048633F
:10367000FEF7F8FB054606E0FEF7F4FB401B0228C8
:1036800001D9032096E5A748406B02210840002895
:10369000F2D120212068084020285ED1206A00282D
:1036A00002D0206A012800D104E009218901A04844
:1036B00002F0BCF99B4840680C2108400C280AD055
:1036C000984840680840082811D196484068490346
:1036D000084088420BD19348406B012109040840FF
:1036E00000283AD0206A012837D0012062E5206AFC
:1036F000002819D08B48406B0121090408438949EF
:103700004863FEF7AFFB054606E0FEF7ABFB401B48
:10371000022801D903204DE58248406B01210904AC
:1037200008400028F1D018E07E48406B01210904D0
:1037300088437C494863FEF795FB054606E0FEF7A3
:1037400091FB401B022801D9032033E57548406BEB
:103750000121090408400028F1D1606A002805D041
:10376000606A012802D0606A022800D104E06F4933
:1037700074316F4802F05AF9606A00287ED06948B7
:1037800040680C210840082879D0606A022877D167
:103790000121C903A06A884209D00321C903A06A94
:1037A000884204D001210904A06A884200D104E0C3
:1037B0005E497D315E4802F039F9E06A002844D064
:1037C00001218904E06A88423FD04900E06A8842CA
:1037D0003BD003218904E06A884236D001210905E3
:1037E000E06A884231D005218904E06A88422CD001
:1037F0000321C904E06A884227D007218904E06ACE
:10380000884222D001214905E06A88421DD0092161
:103810008904E06A884218D00521C904E06A884218
:1038200013D00B218904E06A88420ED003210905D8
:10383000E06A884209D00D218904E06A884204D0F8
:103840000721C904E06A884200D104E00521C901CA
:10385000374802F0EBF8206B002830D0206B0128AD
:103860002DD0206B02282AD0206B032827D0206B74
:10387000042824D0206B052821D002E092E08FE0BC
:1038800074E0206B06281AD0206B072817D0206B15
:10389000082814D0206B092811D0206B0A280ED0DC
:1038A000206B0B280BD0206B0C2808D0206B0D2828
:1038B00005D0206B0E2802D0206B0F2800D104E029
:1038C0001A497F311A4802F0B1F816480068012100
:1038D0000906884313490860FEF7C4FA054606E066
:1038E000FEF7C0FA401B022801D9032062E40D480C
:1038F00000680121490608400028F1D100BF0948AD
:10390000C06A00090001216B08430649C862A16A28
:10391000E06A0843034949687B22D2039143084384
:10392000004907E000100240881300000202000076
:10393000F0340008486000BF08460068012109060D
:10394000084319490860FEF78DFA054606E0FEF7C0
:1039500089FA401B022801D903202BE41248006891
:103960000121490608400028F1D01BE00E480068FC
:103970000121090688430C490860FEF773FA0546E1
:1039800006E0FEF76FFA401B022801D9032011E47C
:10399000054800680121490608400028F1D101E0EE
:1039A000012007E4002005E40010024010B50446A1
:1039B000042C01D0002C00D104E0FF21383109A0F3
:1039C00002F034F8042C06D113480069042108439E
:1039D0001149086105E010480069042188430E4937
:1039E000086110BD2E2E5C53544D3332463078782A
:1039F0005F48414C5F4472697665725C5372635CE8
:103A000073746D3332663078785F68616C5F636FB2
:103A1000727465782E63000000E000E070470000DB
:103A200070B504462546681E0949884201D901201F
:103A30000CE0681E074948610321081F00F0DAFF07
:103A400000200449886107200861002070BD000043
:103A5000FFFFFF0000E000E010B5FFF7DFFF10BD43
:103A6000002813DD14210A4A41438A18143A516888
:103A70000B69DB070AD0CB68DB0707D00B695B0853
:103A80005B000B611169002900D0084770470000F6
:103A900060070020FEE7000006480068002807D005
:103AA00010B50448FEF726FA0248FEF7E3F910BD08
:103AB00070470000880700200648C06C002808D026
:103AC00010B505480446FEF715FA2046FEF7D2F970
:103AD00010BD704788070020D407002070B5054648
:103AE0006C6A206840680121C90308432168486066
:103AF0000020A16B4863E16B48634120005D6028B2
:103B000006D12021412001552046FEF7B1F902E0FF
:103B10002046FEF7FFF970BD70B505466C6A206857
:103B200040680121C90308432168486010212046EC
:103B300000F062F970BD70B505466C6A20680068D7
:103B40000121C903884321680860608D002804D1E1
:103B50001221204600F084F817E0218D606A401899
:103B60006062608DFF2802D9FF20208501E0608D12
:103B70002085238D266831462431626AE06BFDF78B
:103B8000EDFE1221204600F06BF870BD70B50546C1
:103B90006C6A2068006801218903884321680860F5
:103BA000608D002804D11221204600F059F817E05A
:103BB000218D606A40186062608DFF2802D9FF2065
:103BC000208501E0608D2085238D266832462832CD
:103BD000616AA06BFDF7C2FE1221204600F040F89A
:103BE00070BD10B503460A460021D007C00F00285B
:103BF00009D0422001434120C05C282420402828CD
:103C000001D0B020014302201040022809D14420F5
:103C100001434120C05C28242040282801D0B02046
:103C2000014304201040042801D1B8200143112091
:103C30001040112801D19020014312201040122879
:103C400001D12020014312201040122801D1402030
:103C500001431868006888431C682060002010BD7C
:103C600010B503460022204C586BA04203D01F4CD5
:103C7000586BA04218D104200840042801D1B82074
:103C8000024311200840112801D190200243122044
:103C90000840122801D12020024312200840122897
:103CA0001AD14020024317E004200840042801D123
:103CB000B8200243C807C00F002801D0F2200243F9
:103CC00002200840022801D1F420024312200840BB
:103CD000122801D1202002431868006810431C6894
:103CE0002060002010BD0000FD4200082B450008A8
:103CF00001688969022211404908002902D0002187
:103D00000268916201688969C907C90F012251409F
:103D10005140002904D10168896911430268916109
:103D20007047F8B5044600270025002600200090C3
:103D30004120005D28210840282854D1206880694E
:103D4000012109040840070C206880697F2149048B
:103D50000840050C206880688605B60D2068C0689C
:103D6000FE2108400090E06802282DD1062028405E
:103D7000F11106221140884216D13546A06C401C34
:103D8000A064A06C022836D10020A064082021681D
:103D9000C86100BF00214020015500BF2A463946B6
:103DA0002046FEF766F826E0009D04212046FFF736
:103DB00018FF00BF00214020015500BF2A463946A8
:103DC0002046FEF756F816E004212046FFF709FFCB
:103DD00000BF00214020015500BF2A463946204639
:103DE000FEF747F807E008202168C86100BF0021FE
:103DF0004020015500BFF8BD70B504460D460021B6
:103E0000422001553F48E06200206085606C2843F5
:103E100060644120005D282807D04120005D2928EA
:103E200003D04120005D2A280BD103212046FFF753
:103E3000D8FE2821412001550020206332486063CC
:103E40000DE007212046FFF7CCFE4120005D6028F1
:103E500002D02021412001550020206360632068AA
:103E60000068012189030840884215D12068006854
:103E70008843216808602548A16B486300BF002182
:103E80004020015500BFA06BFDF7B0F9002838D0E5
:103E9000A06B416B884734E0206800680121C903AA
:103EA0000840884215D1206800688843216808606E
:103EB0001648E16B486300BF00214020015500BF58
:103EC000E06BFDF793F900281BD0E06B416B88474E
:103ED00017E04120005D60280BD1202141200155D1
:103EE00000BF00214020015500BF2046FDF7C0FF64
:103EF00007E000BF00214020015500BF2046FEF72B
:103F000009F870BD0000FFFFC9450008DD3A000850
:103F100070B504460D461A48E06200202063202157
:103F200041200155002142200155002060630420FA
:103F30002840002813D02068406AC1B2626A501C31
:103F400060621170208D002809D0208D401E2085D0
:103F5000608D401E6085606C042108436064072109
:103F60002046FFF73EFE10202168C86100BF0021F7
:103F70004020015500BF2046FEF7ADF970BD00009E
:103F80000000FFFF70B504460D4620202168C8617F
:103F90002068406834490840216848600020206358
:103FA00060633248E06210202840002806D01020CC
:103FB0002168C861606C0421084360642046FFF7F3
:103FC00097FE03212046FFF70CFE606C002803D10A
:103FD0004120005D602804D1616C2046FFF70CFF92
:103FE00040E04120005D21281CD1202141200155C5
:103FF0004220005D40280AD100214220015500BF27
:104000004020015500BF2046FEF788F92AE0002134
:104010004220015500BF4020015500BF2046FEF759
:104020005CF91FE04120005D22281BD120214120A6
:1040300001554220005D40280AD10021422001554F
:1040400000BF4020015500BF2046FEF747F909E0B8
:1040500000214220015500BF4020015500BF2046ED
:10406000FEF73AF970BD000000E800FE0000FFFF17
:1040700070B504460D4620202168C86108202168DB
:10408000C86107212046FFF7ACFD20684068012188
:10409000C9030843216848602068406841490840D6
:1040A000216848602046FFF723FE20680068012150
:1040B00089030840884205D020680068490008400C
:1040C00088420BD14120005D212803D1A06B0068FC
:1040D000406802E0E06B006840686085608D002801
:1040E00003D0606C04210843606404202840002849
:1040F00013D02068406AC1B2626A501C60621170BD
:10410000208D002809D0208D401E2085608D401E06
:104110006085606C042108436064002020630021F6
:104120004220015500206063606C00280CD0616C57
:104130002046FFF761FE4120005D282831D1294645
:104140002046FFF7E5FE2CE0E06A174988420DD0D3
:104150000846E06220214120015500BF0021402097
:10416000015500BF2046FEF7B6F81AE04120005D79
:1041700022280BD120214120015500BF00214020E1
:10418000015500BF2046FEF776FA0AE020214120C3
:10419000015500BF00214020015500BF2046FEF719
:1041A0006BFA70BD00E800FE0000FFFF10B504468A
:1041B0000021422001554120005D292811D12821EC
:1041C000412001552120206301212046FFF709FDF0
:1041D00000BF00214020015500BF2046FEF74CFAE9
:1041E00014E04120005D2A2810D1282141200155EA
:1041F0002220206302212046FFF7F3FC00BF0021AC
:104200004020015500BF2046FEF735FA10BD0000E2
:1042100070B504460D461646206880691021084096
:10422000000900283AD015E0681C002812D0002DA3
:1042300004D0FDF717FE801BA8420BD92021412096
:10424000015500214220015500BF4020015500BF0B
:10425000032070BD206880692021084040090028A3
:10426000E2D010202168C86120202168C861204662
:10427000FFF73EFD20684068094908402168486012
:104280000420606420214120015500214220015575
:1042900000BF4020015500BF0120DAE70020D8E729
:1042A00000E800FE70B5002803DD104C2478A04221
:1042B00001DD002070BD182460430D4C0419183C2A
:1042C000207A0128F6D00228F4D06068094D0068F1
:1042D000A842094800D04C30FDF736FF032801D032
:1042E000032070BD0420207270BD00006A00002011
:1042F000200800200054004088070020FEB5044636
:104300000D46164600270020019000BF4020005DAA
:10431000012801D10220FEBD01214020015500BF2E
:1043200010202840002812D01020304000280ED045
:1043300010202168C861606C042108436064122168
:104340002046FFF78DFC2046FFF7D2FC54E080208A
:104350002840002844D040203040002840D0206829
:1043600000684021884321680860608D002832D0B1
:10437000206840688705BF0D608DFF2805D9FF20A4
:10438000208501200006019004E0608D2085012039
:104390004006019000200090208DC2B23946204690
:1043A000019B00F0C1F9608D218D401A608541208C
:1043B000005D222807D1206800680121C903084355
:1043C0002168086018E0206800680121890308431B
:1043D0002168086010E040212046FFF70DFD0BE04A
:1043E00020202840002807D020203040002803D07B
:1043F00029462046FFF7C6FD00BF00214020015599
:1044000000BF002087E7FFB581B0044615461E4671
:104410000A9F01204003F2B2002300902046029937
:1044200000F082F9394620460B9A00F010FA002875
:1044300007D0606C042802D1012005B0F0BD032034
:10444000FBE7012E03D1E8B22168886216E0FF2065
:1044500000022840001221688862394620460B9AE3
:1044600000F0F5F9002806D0606C042801D1012085
:10447000E3E70320E1E7E8B2216888620B983B4656
:10448000002240210090204600F0B8F9002801D019
:104490000320D2E70020D0E7FFB581B004461546DF
:1044A0001E460A9F01204003F2B2C302009020463C
:1044B000029900F039F9394620460B9A00F0C7F905
:1044C000002807D0606C042802D1012005B0F0BD9F
:1044D0000320FBE7012E03D1E8B22168886216E0D1
:1044E000FF200002284000122168886239462046D9
:1044F0000B9A00F0ACF9002806D0606C042801D1BA
:104500000120E3E70320E1E7E8B2216888620B9825
:104510003B46002280210090204600F06FF90028E1
:1045200001D00320D2E70020D0E770B504460D4645
:10453000164600BF4020005D012801D1022070BD59
:1045400001214020015500BF1020284000281CD028
:1045500010203040002818D04120005D212803D1D0
:10456000A06B0068406802E0E06B006840680028CB
:1045700003D110202168C8611FE010202168C861A4
:10458000606C04210843606417E00820284000287C
:1045900007D008203040002803D008202168C861D7
:1045A0000BE020202840002807D0202030400028A1
:1045B00003D029462046FFF75BFD00BF00214020C5
:1045C000015500BF0020BAE770B504460D461646F7
:1045D00000BF4020005D012801D1022070BD0121F3
:1045E0004020015500BF10202840002834D0102062
:1045F0003040002830D0608D002825D1E06A49067F
:10460000884202D0E06A884208D14120005D282813
:1046100004D129462046FFF77BFC70E0E06A41495F
:1046200088420DD04120005D292809D11020216841
:10463000C8612046FFF75CFB2046FFF7B7FD5EE050
:1046400010202168C8615AE010202168C861606CA0
:1046500004210843606452E00420284000281ED052
:104660000420304000281AD0608D00280CD020682B
:10467000406AC1B2626A501C60621170208D401E97
:104680002085608D401E6085608D002837D1E06AEE
:104690002449884233D02046FFF788FD2FE00820C8
:1046A0002840002808D008203040002804D029469F
:1046B0002046FFF736FB22E00220284000281ED0CB
:1046C0000220304000281AD0608D00280CD0616A8A
:1046D000481C6062087821688862608D401E608591
:1046E000208D401E20850AE0E06A012109068842EB
:1046F00002D0E06A002802D12046FFF757FD2020B3
:104700002840002807D020203040002803D0294628
:104710002046FFF7ADFC00BF00214020015500BF3F
:1047200000205BE70000FFFFFFB581B004461D4697
:104730000A9E002721492068884203D0204920682A
:10474000884200D103E01F491FA001F06FF901204A
:104750000006854204D04000854201D0002D00D1E2
:1047600004E01849491C18A001F060F901208003F9
:10477000864209D009208002864205D001204003EC
:10478000864201D0002E00D104E00E49891C0EA003
:1047900001F04CF9206847681748074002988005E7
:1047A000800D03990904FF22120411400843284395
:1047B000304307432068476005B0F0BD0054004017
:1047C000005800403A1200002E2E5C53544D3332F4
:1047D000463078785F48414C5F4472697665725C18
:1047E0005372635C73746D3332663078785F6861DE
:1047F0006C5F6932632E6300009800FCF8B50446D4
:104800000E4617461D4616E0681C002813D0002DE2
:1048100005D0FDF727FB0699401AA8420BD92021A5
:104820004120015500214220015500BF4020015583
:1048300000BF0320F8BD206880693040B04201D13C
:10484000012000E00020B842DED00020F2E770B581
:1048500004460D46164621E0324629462046FFF71B
:10486000D7FC002801D0012070BD681C002815D09D
:10487000002D04D0FDF7F6FA801BA8420ED9606C1B
:104880002021084360644120015500214220015548
:1048900000BF4020015500BF0320E5E72068806984
:1048A0000221084040080028D6D00020DCE70000A4
:1048B000F8B504463D48844201D1002509E00120B5
:1048C0008007844201D1012503E03948844200D1A8
:1048D00002252069374E384F800716D5E0688007DB
:1048E00013D52069022188432061A06980070CD07C
:1048F000A800811900200856002806DD0101C91909
:104900001039C968002900D088472069400717D5A9
:10491000E068400714D52069042188432061A0691C
:104920008005800F0CD0A8008119012008560028AE
:1049300006DD0101C9191039C968002900D088476E
:104940002069000716D5E068000713D52069082103
:1049500088432061E06980070CD0A80081190220FB
:104960000856002806DD0101C9191039C968002957
:1049700000D088472069C00617D5E068C00614D566
:104980002069102188432061E0698005800F0CD0E8
:10499000A800811903200856002806DD0101C91965
:1049A0001039C968002900D08847F8BD002C0140A3
:1049B000000400406C0000202809002010B50849C0
:1049C0000020FBF751FE07490020FBF74DFE06498A
:1049D0000020FBF749FE05490020FBF745FE10BD0E
:1049E000D1070008990700080D500008B94A0008CF
:1049F0007047000010B5002819DA1A4A03071B0F88
:104A0000083B9B089B00D2588307DC0EFF23A34082
:104A10009A438B071B0E8407E40EA3401A43114BE5
:104A20000407240F083CA408A4001A5118E00E4AF9
:104A300003231B02D21883089B00D2588307DC0E85
:104A4000FF23A3409A438B071B0E8407E40EA34069
:104A50001A43054B032424021B198408A4001A518D
:104A600010BD00001CED00E000E100E010B50020EA
:104A700000F05CF80D480078401CC0B20B4908708B
:104A80000A2804D100200870012000F04FF80848DF
:104A90000078401CC0B206490870642804D1002088
:104AA0000870022000F042F810BD00002400002031
:104AB000250000207047000010B501F039FA0328E6
:104AC0002BD116480068002827D015480068FF2819
:104AD00023DC00241AE01348005DFF2812D112489D
:104AE0000068401C104908600846006801218903DD
:104AF000884207D10121102001F012FA0121112072
:104B000001F00EFA002007490855641C402CE2DB36
:104B100003480068401C0249086010BD14000020D2
:104B200018000020140200201C000020014654221E
:104B30004A43074BD0184268002A00D17047427898
:104B400003789A4201DB0022427000BFF6E70000C2
:104B50005802002070B51A4806785420704318494E
:104B6000091D44186578A900201D405800280BD164
:104B700013480078401C1249087008460078032842
:104B800001DB0020087070BD60782178884215DA5A
:104B9000AA00211D885880476078401C60706078AA
:104BA000217888420ADB06480078401C04490870D6
:104BB00008460078032801DB0020087000BFE2E708
:104BC0005402002070B504001AD0FF2919D02078B3
:104BD0000D46A84214D9A8000019401C01780A46C5
:104BE000417809020A438178C07809040A43000623
:104BF000024300D090470A352078EDB2A842EAD8A7
:104C000070BD207800250028FAD9A8000019401CA2
:104C1000027811464278120211438278C078120459
:104C200011430006014300D088476D1C2078EDB287
:104C3000A842EAD870BD0000054900200856014688
:104C4000803103D010B500F04BFB10BD7047000061
:104C50007D0000200549012008560146803103D01F
:104C600010B500F03DFB10BD704700007D00002036
:104C70007047000010B5FF211748FFF7A3FF174C3E
:104C80002078401CC0B220700A281DD1002121705C
:104C90006078401CC0B260700A280ED16170A078A4
:104CA000401CC0B2A0703C2800D1A1703C21A0786B
:104CB000FBF7EDFA0A48FFF785FF0A216078FBF75A
:104CC000E6FA0848FFF77EFF0A212078FBF7DFFAB3
:104CD0000548FFF777FF10BDEA0A00208500002095
:104CE000A10B0020640B0020270B002010B4214BE7
:104CF000002210469100C9184870040A8C70040CF8
:104D0000CC70040E521CD2B20C710F2AF2D3187060
:104D1000194B00229100C9184870040A8C70040CC9
:104D2000CC70040E521CD2B20C710F2AF2D3187040
:104D3000124B00229100C9184870040A8C70040CB0
:104D4000CC70040E521CD2B20C710F2AF2D3187020
:104D50000B4B00229100C9184870040A8C70040C97
:104D6000CC70040E521CD2B20C710F2AF2D3187000
:104D700010BC7047EA0A0020270B0020640B0020BB
:104D8000A10B002010B5FDF7B9FDFEF765FE10BDC3
:104D9000194800680121084317490860084640681F
:104DA00016490840144948600846006814490840FC
:104DB00011490860084600680121890488430E49AA
:104DC0000860084640683F21090488430A49486052
:104DD0000846C06A00090001C8620846006B09491C
:104DE0000840054908630846406B40084000486396
:104DF0000020886070470000001002400CB8FF08D7
:104E0000FFFFF6FEACCEFFFF054900200856014625
:104E1000803103D010B5FEF723FE10BD70470000AF
:104E2000660000200549012008560146803103D064
:104E300010B5FEF715FE10BD70470000660000209B
:104E40000549022008560146803103D010B5FEF70F
:104E500007FE10BD704700006600002005490320D2
:104E600008560146803103D010B5FEF7F9FD10BD9C
:104E7000704700006600002010B50248FFF718FDDB
:104E800010BD0000002C014010B501208007FFF785
:104E90000FFD10BD10B50248FFF70AFD10BD000060
:104EA0000004004010B500220268214B984206D051
:104EB00001239B07984202D01E4B984205D17024D3
:104EC0001346A3431A464B681A43194B984212D013
:104ED00001239B0798420ED0164B98420BD0164BDD
:104EE000984208D0154B984205D0154B984202D0F5
:104EF000144B984206D1032424021346A3431A46B6
:104F0000CB681A4302608B68C3620B688362084BEC
:104F1000984208D0094B984205D0094B984202D0DC
:104F2000084B984201D10B6903630123436110BD13
:104F3000002C0140000400400020004000400140DF
:104F40000044014000480140F8B504460D461646AD
:104F500000271B48844212D00120800784420ED0D3
:104F6000184884420BD01848844208D0174884421D
:104F700005D01748844202D01648844200D103E08D
:104F8000154916A000F052FD002D07D0042D05D0C4
:104F9000082D03D00C2D01D0182D00D104E00E49AE
:104FA000491C0EA000F042FD0120A8400746206ADF
:104FB000B8432062206A3146A94008432062F8BD08
:104FC000002C01400004004000200040004001404F
:104FD0000044014000480140F71400002E2E5C53AD
:104FE000544D3332463078785F48414C5F447269A3
:104FF0007665725C5372635C73746D3332663078BD
:10500000785F68616C5F74696D2E6300002000E05A
:10501000401C02498842FBDB70470000FFFF000094
:105020000549002008560146803103D010B500F034
:1050300031FA10BD704700008000002005490120B2
:1050400008560146803103D010B500F023FA10BD98
:10505000704700008000002010B5084C0220205648
:105060000146803101D000F015FA03202056014698
:10507000803101D000F00EFA10BD00008000002049
:10508000214A516901423ED070B550611F4D002147
:105090002C781F4B002C0FD90C224A43D218967A39
:1050A000002E06D052689288824202D1491C4EB22C
:1050B00004E0491CA142EFD37F26F64330468030FE
:1050C00015D00C207043C4180C3C606881880068BF
:1050D000FCF758FE0028A07A0AD0012801D0032846
:1050E00005D1AA68002A02D000213046904770BD41
:1050F000022801D00328FAD1AA68002AF7D001219A
:105100003046904770BD70470004014058000020B1
:105110001006002070B5056A044628680168490831
:1051200049000160227F00211020002A04D0012ABA
:1051300007D0022A05D102E00121090701E001217F
:105140000903A27F002A0AD0012A02D0022A06D12E
:1051500002E00122920201E0032252021143574A67
:105160001143226A12681368554E33400B43136093
:10517000627F002A02D0012A04D101E0002101E06F
:1051800001214903226A1268536803263603B34398
:105190000B435360216A09688A680B231B029A43F8
:1051A0008A60216A474E09680122474B1204B142C6
:1051B0000AD1196B8907890F20D0012914D002293F
:1051C00014D003291BD10DE0404EB14210D1196B10
:1051D00003231B04194011D0891A05D0891A05D060
:1051E00091420CD102200AE0042008E0082006E0E9
:1051F000374B994202D0374B994200D1002000280A
:1052000006D002280ED0042814D008282AD11BE08A
:10521000FDF7E0FE616940004A088018FBF737F8A7
:1052200080B217E061692C4A48088018FBF72FF814
:1052300080B20FE0FDF7E0FE616940004A08801887
:10524000FBF725F880B205E0616948088018FBF794
:105250001EF880B2010909010007400F0843216AC6
:105260000968C8602868026801210A430260207F3B
:10527000FF22022805D07F23012807D000280AD06A
:105280000EE0A07F002804D1144808E0A07F002889
:1052900011D1628504E0A07F00280CD03F206085FA
:1052A000206A0068026820231A43026020342172B9
:1052B0000020607270BD6385F2E700000C80000082
:1052C000F369FFEF00380140001002400044004045
:1052D00000480040004C00400024F400FF010000A2
:1052E000002878DDF8B53C213B4A41438C183C3C12
:1052F000E16909684B688A683C256843364DD607E2
:10530000451980271C3D002E35D0580633D50E7B1D
:10531000287D02282FD02089A18D814221D2206AA8
:105320004268002A03D00020205631469047606A28
:105330000670606A401C6062A08D401CA085216BD5
:10534000080608D5B9432163206AC268002A02D042
:105350000020205690470020A87520870120A875BE
:10536000F8BD216B0806F6D439432163206AC26870
:10537000002AEDD1EFE79007F2D51806F0D5E08DC1
:1053800000280AD00228A06A1CD30088C860A06A3E
:10539000801CA062E08D801E1BE08868C004800F26
:1053A000DED188680006DBD44868B8434860002036
:1053B0002875206A01680029D2D00020205688472D
:1053C000F8BD08E000780873A06A401CA062E08D78
:1053D000401EE085F8BD70476C090020F0B4067DE2
:1053E000C269002E02D0012E04D101E0002301E0A9
:1053F000FF23053314462034667A082E17D237006F
:105400007F443F79FF19BF44030507090B0D0F11B6
:1054100000210CE008210AE0102108E0182106E034
:10542000202104E0282102E0302100E03821A67A82
:10543000002E02D0012E03D101E0002500E002255C
:10544000E47A002C02D0012C01D18024A44601264C
:1054500076022B4333430B430024072761460B435B
:1054600011680D68402635402B430B6017211368E7
:105470000902596011680F611168CA69044B1A402A
:10548000CA6120300475012141758475F0BC7047F4
:10549000FFF70000F8B58101AA480D182C46403CE2
:1054A00028468038006E009000680821016200984C
:1054B0000068C1691E3D890600297DDA0068800602
:1054C0007AD5216A608D0968898C0140207F022885
:1054D00002D1A07F002808D00122A069002806D0B0
:1054E00020892746002A0AD00AE00022F5E7606AF0
:1054F0000368002B60D00020205698477DE04008CC
:10550000FB8D83427ED2002A23D014202B181E78D4
:1055100030465E78360230439E78DB78360430437E
:105520001B061843017014202B181E7830465E7835
:10553000360230439E78DB78360430431B0618432E
:10554000401C2875030A6B75030CAB75000EE875DB
:1055500022E014202B181E7830465E783602304345
:105560009E78DB78360430431B06184301801420F4
:105570002B181E7830465E78360230439E78DB78F2
:10558000360430431B061843801C2875030A6B75CC
:10559000030CAB75000EE875F88D401CF885786A31
:1055A0000368002B02D000202056984710216A186B
:1055B00013782846194600E01FE053781B02194370
:1055C0009378D2781B041943120611438A060FD52B
:1055D0002022914301740A0A42740A0C82740A0E52
:1055E000EA74606AC268002A02D000202056904700
:1055F0000121292001550020A08500980068C1697B
:105600000A0600E00CE04021002A50DA006800069B
:105610004DD5208E002875D0207F02281BD01DE09C
:10562000102028180278114642781202114382781D
:10563000C07812041143000601432020014329745D
:10564000080A6874080CA874080EE874606AC268D6
:10565000002ACAD1CCE7A07F002829D018202A1818
:105660001378184653781B0218439378D2781B049A
:105670001843120610430278206A00680285182039
:105680002A181378184653781B0218439378D27857
:105690001B04184312061043401C2876020A6A763F
:1056A000020CAA76000EE876208E401E208634E09A
:1056B00018202A181378184653781B021843937839
:1056C000D2781B041843120610430088C205206AD2
:1056D000D20D0068028518202A18137818465378CE
:1056E0001B0218439378D2781B0418431206104308
:1056F000801C2876020A6A76020CAA76000EE876EA
:10570000D2E7FFE7206A0068026880239A430260BC
:10571000206A006802680A43026000980068C26953
:1057200052060ED5006840060BD5206A0068026854
:105730008A430260606A4168002902D00020205636
:105740008847F8BDA8090020F0B4040C8BB22646A7
:1057500082B25E430D0C1046370C58433604801954
:105760000021794116466E43370C36048019794181
:1057700026466E438919F0BC70470000F0B5504EC4
:105780000446307889B010284FD24F4D4D482860DC
:10579000B068002856D14D48816942151143816196
:1057A000816911400891436901210B4343614069BC
:1057B000FF2308400890C80768600020A861E861DE
:1057C000A963A860E8602862C2336862AB6229619D
:1057D000E86204236B6169633E4F28633C4978604B
:1057E0003960B86080203A61F8600001786120205B
:1057F000B861C001F8613846FBF752FD3846FBF747
:10580000D5FFEF630022022109207D62FDF7FEF83B
:105810000920FDF7CDF82846FBF756FA002804D1F9
:105820002846FBF75DF8002803D07F20C04309B06D
:10583000F0BD0021284AFF205054491C1229FBD3F7
:105840000120B0603078254A010141188F187C7022
:10585000210AB970210CF970210E39711E49A36813
:105860007D1C2A46C8540025FD733D741C48F872FF
:10587000000A387315725572157155711948F8710F
:10588000000A3872206800F077FA03200295019030
:10589000A088009069462068FCF7BCF8012000034E
:1058A000069001200790A068059005A90648FBF71F
:1058B0009DF83078401C307040B2387009B0F0BDAF
:1058C0004800002000240140A005002000100240F4
:1058D00008000240000400208C0500203C04002049
:1058E00001800000FF0F0000002803DD084A127845
:1058F000904201DD0020704702018018054A80189F
:105900001138027BC37A10021843088001207047C7
:10591000480000203C040020F8B53E4801780029EA
:1059200077D0407800286ED000213B4C3B4D3C4E58
:105930000846225CFF2A08D017018B00D219EB5AC7
:10594000921953731B0A9373491C401C1228F0D3FD
:10595000334E0027B07B717B00020843B17A727A24
:105960000902751C1143884202D92872010A697222
:10597000317AF2790902F41C1143884202D2207173
:10598000010A617169792A7909021143081880B204
:105990002871010A6971617B227B09021143491C4C
:1059A00089B20A0A217362730A2928D3627A237A98
:1059B00012021A4300926A7A2B7A12021A43801A50
:1059C0006279237912021A43801A891EFAF76DFC54
:1059D00082B22272100A60720020287268722871E6
:1059E0006871207360730F482071000A6071094864
:1059F0004368002B03D0781C40B2009998471136B9
:105A00007F1C102FA6D30348044902780648FBF7F1
:105A100027FBF8BD480000208C0500204C05002025
:105A20003C040020FF0F0000A0050020704700008C
:105A3000F0B5214E0446307889B0022830D2707813
:105A4000002811D11E491D4808600846FBF792FB4B
:105A5000002825D11B48C16942041143C161C069B6
:105A6000104005900120707030781749C00045182B
:105A70006C60206800F080F90320002702970190F5
:105A8000A088009069462068FBF7C4FF02200790B9
:105A9000069706A90A48A268FBF768FB002803D00E
:105AA0007F20C04309B0F0BD3078401C307040B258
:105AB000287009B0F0BD00005400002000740040C0
:105AC000FC05002000100240EC05002030B5044623
:105AD00085B080880090A0790D00029006D0012D3D
